:020000040800F2
:10000000584E002059040008450100084701000827
:10001000530100085F0100086B01000800000000A8
:100020000000000000000000000000007701000850
:1000300079010008000000006F0400087B0100083F
:100040007304000873040008730400087F010008AB
:1000500073040008730400087D010008730400089D
:100060007304000873040008730400087304000894
:100070007304000873040008730400087304000884
:100080007304000873040008730400087304000874
:100090007304000873040008730400087304000864
:1000A0007304000873040008730400087304000854
:1000B0008D320008730400087304000873040008FC
:1000C0007304000873040008730400087304000834
:1000D00073040008C1290008B132000873540008F5
:1000E0007304000873040008730400087304000814
:1000F0007304000873040008730400087304000804
:1001000073040008730400087304000873040008F3
:1001100073040008730400087304000873040008E3
:1001200073040008730400087304000873040008D3
:10013000DFF80CD005F0C8FE004800471D3B000862
:10014000584E002070470EA11C4802F015FC00BF5D
:10015000FEE71BA1194802F00FFC00BFFEE727A134
:10016000164802F009FC00BFFEE733A1134802F075
:1001700003FC00BFFEE77047704770477047704749
:100180000D0A2A2A2A2A2A2A2A2A2A2A2A2A2A2A0C
:100190002A2A2A2A2A486172644661756C745F486B
:1001A000616E646C65722A2A2A2A2A2A2A2A2A2A35
:1001B0002A2A2A2A2A2A2A2A2A0D0A000038014035
:1001C0000D0A2A2A2A2A2A2A2A2A2A2A2A2A2A2ACC
:1001D0002A2A2A2A2A4D656D4D616E6167655F483E
:1001E000616E646C65722A2A2A2A2A2A2A2A2A2AF5
:1001F0002A2A2A2A2A2A2A2A2A0D0A000D0A2A2A03
:100200002A2A2A2A2A2A2A2A2A2A2A2A2A2A2A2A4E
:100210002A4275734661756C745F48616E646C65E3
:10022000722A2A2A2A2A2A2A2A2A2A2A2A2A2A2AE6
:100230002A2A2A2A0D0A00000D0A2A2A2A2A2A2AEC
:100240002A2A2A2A2A2A2A2A2A2A2A2A2A55736163
:1002500067654661756C745F48616E646C65722A8F
:100260002A2A2A2A2A2A2A2A2A2A2A2A2A2A2A2AEE
:100270002A2A0D0A000000000CB500200190009011
:100280006C48006840F480306A49086000BF6948E3
:10029000006800F4003000900198401C0190009824
:1002A00018B90198B0F5A06FF1D16248006800F468
:1002B000003010B10120009001E000200090009873
:1002C000012843D15C48006840F010005A4908609A
:1002D0000846006820F0030008600846006840F007
:1002E0000200086053484068524948600846406828
:1002F00048600846406840F48060486008464068AE
:1003000020F47C1048600846406840F4E8104860DB
:100310000846006840F08070086000BF45480068EB
:1003200000F000700028F9D04248406820F0030037
:10033000404948600846406840F00200486000BFFD
:100340003C48406800F00C000828F9D10CBD10B5FD
:10035000FFF792FF10BD10B53648006840F001006D
:1003600034490860084640683449084031494860CB
:1003700008460068324908402E490860084600686F
:1003800020F4802008600846406820F4FE004860A1
:100390004FF41F008860FFF7DAFF4FF00060294933
:1003A000086010BD10B5002100200022214B5B68C1
:1003B00003F00C0121B1042906D0082928D107E057
:1003C000214B224C236027E01F4B204C236023E06D
:1003D000184B5B6803F47010164B5B6803F48032B3
:1003E000022303EB904022B9194B4343174C23607F
:1003F0000DE0104B5B6803F4003323B1144B43430F
:10040000124C236003E0104B4343104C236003E085
:100410000D4B0E4C236000BF00BF064B5B68C3F35F
:1004200003130C4CE15C094B1B68CB40074C236069
:1004300010BD000000100240002002400000FFF844
:10044000FFFFF6FE08ED00E000127A000000002039
:1004500000093D0004000020064880470648004788
:10046000FEE7FEE7FEE7FEE7FEE7FEE7FEE7FEE764
:10047000FEE7FEE757030008310100083149014358
:10048000314A1160704770B5002100230F22C478F3
:1004900004B32D4C246804F4E064C4F5E064210A3C
:1004A000C1F10403CA40447804FA03F1847814408B
:1004B00021430901254C0678A155047804F01F0555
:1004C0000124AC4005786D11AD0005F1E025C5F8BB
:1004D000004109E0047804F01F050124AC401C4DE4
:1004E0000678761145F8264070BD1A4A0A40024344
:1004F000154B1B1F1A60704739B1134A121D126841
:100500000243114B1B1D1A6006E00F4A121D1268B0
:1005100082430D4B1B1D1A607047042808D14FF011
:10052000E021096941F004014FF0E022116107E088
:100530004FF0E021096921F004014FF0E022116140
:10054000704700000000FA050CED00E000E400E058
:1005500080E100E080FFFF1F10B50446CC488442D4
:1005600008D10121042000F02DFB0021042000F01F
:1005700029FB46E0C748844208D10121082000F049
:1005800021FB0021082000F01DFB3AE0C248844214
:1005900008D10121102000F015FB0021102000F0EF
:1005A00011FB2EE0BD48844208D10121202000F03B
:1005B00009FB0021202000F005FB22E0B84884421E
:1005C00008D10121402000F0FDFA0021402000F078
:1005D000F9FA16E0B348844208D10121802000F0E6
:1005E000F1FA0021802000F0EDFA0AE0AE488442E2
:1005F00007D10121801500F0E5FA0021A01500F0D7
:10060000E1FA10BD10B50121084600F0DBFA002127
:10061000012000F0D7FA10BD2DE9F0410246002577
:100620000026002000230024002791F803C00CF0CE
:100630000F0591F803C00CF0100CBCF1000F03D0B3
:1006400091F802C04CEA050591F800C0BCF1000F1A
:1006500031D0146800202BE04FF0010C0CFA00F3AD
:10066000B1F800C00CEA03069E4220D183004FF08F
:100670000F0C0CFA03F7BC4305FA03FC4CEA040424
:1006800091F803C0BCF1280F06D14FF0010C0CFA11
:1006900000FCC2F814C00AE091F803C0BCF1480F96
:1006A00005D14FF0010C0CFA00FCC2F810C0401C40
:1006B0000828D1D31460B1F800C0BCF1FF0F34DDBD
:1006C000546800202EE000F1080C4FF0010808FAF1
:1006D0000CF3B1F800C00CEA03069E4221D183005E
:1006E0004FF00F0C0CFA03F7BC4305FA03FC4CEA7D
:1006F000040491F803C0BCF1280F05D100F1080CE7
:1007000008FA0CF8C2F8148091F803C0BCF1480F45
:1007100007D100F1080C4FF0010808FA0CF8C2F8F4
:100720001080401C0828CED35460BDE8F0814FF6FD
:10073000FF710180022181700421C170704702465F
:10074000002093680B400BB1012000E000207047AF
:100750000146886880B2704702460020D3680B408B
:100760000BB1012000E0002070470146C86880B24C
:10077000704701617047416170470AB1016100E053
:1007800041617047C16070474FF480320A43826113
:100790008161826182698269704702460020434B11
:1007A00018684FF68073184040EA021008433F4B28
:1007B000186070473E49C8617047F0B50A4600238B
:1007C00000240021002500F00046B6F1004F02D1C0
:1007D000364EF16901E0354E7168C0F3034583B2CE
:1007E00000F44016B6F5401F08D121F070612F4E7D
:1007F000766826F070662D4F7E6012E000F4801659
:10080000B6F5801F06D1032606FA05F4A14341F090
:10081000706106E0460D360103FA06F6B14341F079
:10082000706122B1460D360103FA06F6314300F03D
:100830000046B6F1004F02D11C4EF16101E01B4EA3
:100840007160F0BD30B500228B071C0F0F2303FA37
:1008500004F2164B08338C1053F824309343134C96
:1008600008348D1044F8253023468C1053F824307A
:100870008C07240F00FA04F423430C4C08348D1029
:1008800044F8253030BD0A49DC310860704700006B
:1008900000080140000C014000100140001401401C
:1008A00000180140001C01400020014000000140F0
:1008B00000002042DF48006840F00100DD49086088
:1008C00008464068DC490840DA4948600846006844
:1008D000DA490840D74908600846006820F48020BB
:1008E00008600846406820F4FE0048604FF41F008E
:1008F00088607047CF49096821F48031CD4A116082
:100900001146096821F480211160B0F5803F03D0C1
:10091000B0F5802F0ED106E0C649096841F4803158
:10092000C44A116007E0C349096841F4A021C14AE3
:10093000116000E000BF00BF704710B50146002203
:10094000002300204A11012A02D1BA4C236806E094
:10095000022A02D1B74C236A01E0B64C636A01F067
:100960001F02012494401C400CB1012000E0002033
:1009700010BD38B5002000900024002500BF3120B4
:10098000FFF7DBFF05460098401C00900098B0F58B
:10099000A06F01D0002DF2D03120FFF7CEFF08B1BB
:1009A000012400E00024204638BD01460020A14A71
:1009B000106820F0F80040EAC10010607047A049BC
:1009C00008607047024600209A4B586820F47C105B
:1009D00042EA01031843974B5860704798490866EC
:1009E000704701460020934A506820F003000843F6
:1009F000506070478F48406800F00C007047014617
:100A000000208C4A506820F0F00008435060704786
:100A100001460020874A506820F4E0600843506097
:100A2000704701460020834A506820F4605040EA35
:100A3000C1005060704729B17E4A527A02437D4B13
:100A40005A7204E07B4A527A82437A4B5A72704758
:100A50007B49D8310860704701460020754A5068CC
:100A600020F440400843506070470021714A203212
:100A70001170704A82F82010012802D004280AD18F
:100A800004E001216B4A2032117005E00521694A1A
:100A90002032117000E000BF00BF70476949086054
:100AA00070476449096A0143624A116270476549A7
:100AB00044390860704730B500210022002400232B
:100AC0005C4D6D6805F00C0121B1042905D00829A1
:100AD00023D105E05C4D056022E05B4D05601FE021
:100AE000544D6D6805F47012524D6D6805F48034F4
:100AF000022505EB92421CB9544D554305600BE0AD
:100B00004C4D6D6805F400351DB1504D55430560E1
:100B100002E04D4D5543056002E04B4D056000BFBE
:100B200000BF444D6D6805F0F0010909484D6B5C4C
:100B30000568DD4045603F4D6D6805F4E061090AD8
:100B4000434D6B5C4568DD4085603A4D6D6805F44A
:100B50006051C90A3E4D6B5C4568DD40C560354D4E
:100B60006D6805F44041890B3A4D6B5CC568B5FB77
:100B7000F3F5056130BD29B12E4A526902432D4B70
:100B80005A6104E02B4A526982432A4B5A617047EA
:100B900029B1284A92690243264B9A6104E0254A0A
:100BA00092698243234B9A61704729B1214AD269E5
:100BB0000243204BDA6104E01E4AD26982431D4B96
:100BC000DA61704729B11B4AD2680243194BDA60D7
:100BD00004E0184AD2688243164BDA60704729B1A4
:100BE000144A12690243134B1A6104E0114A126954
:100BF0008243104B1A6170471249403908607047B0
:100C00000F49C86470470B49C87170470948406A6A
:100C100040F0807007494862704701460020054A4D
:100C200092680A400AB1012000E0002070470149A3
:100C300088727047001002400000FFF8FFFFF6FEC8
:100C4000000042428004424200127A0000093D0046
:100C5000140000202400002010B50446FB48844204
:100C600009D101218803FFF7ADFF00214FF4804037
:100C7000FFF7A8FF32E0F648844209D10121480479
:100C8000FFF7ADFF00214FF40030FFF7A8FF25E08C
:100C9000F048844209D101218804FFF7A0FF002118
:100CA0004FF48020FFF79BFF18E0EB48844209D106
:100CB0000121C804FFF793FF00214FF40020FFF744
:100CC0008EFF0BE0E548844208D101210805FFF7BB
:100CD00086FF00214FF48010FFF781FF10BD2DE942
:100CE000F04786B005460E460024A24600BFA14646
:100CF0000027B08900B100BF2F462C8A4CF6FF7048
:100D00000440F08804432C82AC894EF6F310044072
:100D1000B08831890843718908430443AC81AC8AA7
:100D20004FF6FF400440B0890443AC8201A8FFF7AE
:100D3000C2FEC648874202D1DDF810A001E0DDF80E
:100D40000CA0A88900F4004040B10AEBCA0000EBF7
:100D50000A1031684900B0FBF1F807E00AEBCA005D
:100D600000EB0A1031688900B0FBF1F86420B8FB91
:100D7000F0F004012009642101FB1089A88900F426
:100D8000004040B1322000EBC900B0FBF1F000F0B0
:100D90000700044308E0322000EB09106421B0FB97
:100DA000F1F000F00F0004432C8106B0BDE8F0879D
:100DB0004FF41651016000218180C18001810C2116
:100DC000418100218181704710B502460020108AC0
:100DD0004FF2FF0318400B884C8823438C88234331
:100DE000CC8823431843108210BD0021018041802C
:100DF0008180C180704721B1828942F40052828192
:100E000004E082894DF6FF731A4082817047F0B585
:100E10000346002400260025002040F66A17B94248
:100E200000D100BF1846C1F3421401F01F0601278C
:100E300007FA06F5012C01D10C3004E0022C01D197
:100E4000103000E014301AB107682F43076002E049
:100E50000768AF430760F0BD1AB1838A0B438382F2
:100E600002E0838A8B4383827047028A4FF6F073D5
:100E70001A400282028A0A430282704782894FF234
:100E8000FF731A40828182890A438281704721B1AF
:100E9000828942F00202828104E082894FF6FD736A
:100EA0001A4082817047028A4FF6DF731A4002822D
:100EB000028A0A430282704721B1028A42F48042C8
:100EC000028204E0028A4BF6FF731A4002827047E6
:100ED000C1F308028280704701468888C0F3080089
:100EE0007047818941F0010181817047028BD2B244
:100EF0000283028B42EA012202837047028B02F4D2
:100F00007F420283028B0A430283704721B1828AA7
:100F100042F02002828204E0828A4FF6DF731A4098
:100F20008282704721B1828A42F01002828204E0FC
:100F3000828A4FF6EF731A408282704721B1828A0B
:100F400042F00802828204E0828A4FF6F7731A4068
:100F50008282704721B1828942F40042828103E09B
:100F60008289C2F30E028281704721B1828A42F4E3
:100F70000062828204E0828A4FF2FF731A4082820A
:100F80007047828A4FF6FB731A408282828A0A4334
:100F90008282704721B1828A42F00202828204E09A
:100FA000828A4FF6FD731A40828270470246002003
:100FB000B1F5007F00D100BF13880B400BB10120B9
:100FC00000E00020704701F40072B2F5007F00D10C
:100FD00000BFCA430280704770B502460024002358
:100FE0000025002040F66A16B14200D100BFC1F3CF
:100FF000421501F01F03012606FA03F3012D02D169
:101000009689334006E0022D02D1168A334001E072
:10101000968A33400C12012606FA04F416883440EE
:1010200013B10CB1012000E0002070BD10B500220A
:10103000002340F66A14A14200D100BF0A12012425
:101040009440A3B2DC43048010BD0000003801408E
:101050000044004000480040004C00400050004068
:1010600010B50446FA48844208D101214015FFF723
:10107000A9FD00216015FFF7A5FD17E0F5488442A2
:1010800008D101210015FFF79DFD00212015FFF774
:1010900099FD0BE0F048844208D10121C803FFF715
:1010A00091FD00214FF40040FFF78CFD10BD30B5DD
:1010B0000246002000235068E84C20400D790C685F
:1010C00044EA0524204350609068E54C2040D1E973
:1010D00002542C434D7944EA450420439060D06A81
:1010E00020F470000C7C641EE4B2234340EA0350F9
:1010F000D06230BD00210160017141718160C16029
:1011000001210174704721B1826842F001028260BE
:1011100003E0826822F001028260704721B1826898
:1011200042F48072826003E0826822F480728260FE
:10113000704710B50023CBB21AB144681C43446019
:1011400002E044689C43446010BD816841F008019E
:1011500081607047014600208A6802F008020AB1E7
:10116000012000E000207047816841F004018160A7
:101170007047014600208A6802F004020AB101208B
:1011800000E00020704721B1826842F4A002826032
:1011900003E0826822F4A0028260704701460020CA
:1011A0008A6802F480020AB1012000E00020704742
:1011B00010B50A4600210023416821F46041531E06
:1011C00041EA4331416010BD21B1426842F40062FE
:1011D000426003E0426822F4006242607047F0B56A
:1011E00004460D4600200021092D11DDE068A5F11F
:1011F0000A0606EB4607072606FA07F18843A5F11B
:101200000A0606EB460603FA06F10843E0600CE026
:10121000206905EB4507072606FA07F1884305EB29
:10122000450603FA06F108432061072A0FDA606BCE
:10123000561E06EB86071F2606FA07F18843561E40
:1012400006EB860605FA06F10843606322E00D2AE4
:101250000FDA206BD61F06EB86071F2606FA07F16A
:101260008843D61F06EB860605FA06F1084320637D
:1012700010E0E06AA2F10D0606EB86071F2606FACB
:1012800007F18843A2F10D0606EB860605FA06F182
:101290000843E062F0BD21B1826842F480128260AE
:1012A00003E0826822F48012826070470146C86CB5
:1012B00080B2704766484C300068704721B1426880
:1012C00042F48062426003E0426822F4806242603D
:1012D000704721B1426842F48052426003E04268A4
:1012E00022F48052426070470A460021816821F44E
:1012F000E04111438160704721B1826842F40042AD
:10130000826003E0826822F400428260704721B16B
:10131000826842F40212826003E0826822F40212C0
:1013200082607047014600208A6802F400120AB108
:10133000012000E000207047F0B50446154600206B
:1013400000220026092911DDE068A1F10A0707EB58
:10135000470C072707FA0CF29043A1F10A0707EBA5
:10136000470703FA07F21043E0600CE0206901EB45
:10137000410C072707FA0CF2904301EB410703FAEF
:1013800007F210432061A06BC0F30156EF1C06F179
:10139000010CA7EB0C0707EB870C1F2707FA0CF2D1
:1013A0009043EF1C06F1010CA7EB0C0707EB870736
:1013B00001FA07F21043A063F0BD10B50A46002100
:1013C0000023816B21F44011531E41EA03518163D4
:1013D00010BD08B5002300930090009B0B440093C0
:1013E000009B1A6008BD08B50246002000900092DC
:1013F00001F12800009B184400900098006880B21A
:1014000008BD0A4600214168164B1940114341604E
:1014100070474162826270470A460021416821F0AC
:101420001F0111434160704740B109490831096803
:1014300041F40001064A0832116007E0044908310E
:10144000096821F40001024A083211607047000067
:101450000024014000280140003C0140FFFEF0FF55
:10146000FDF7F1FFFFFD3FFF0246002013680B4030
:101470000BB1012000E000207047CA4302607047B2
:1014800070B502460020002300240B125568CEB22E
:1014900005EA060415681D4015B10CB1012000E0F5
:1014A000002070BD00220A12D34303607047000081
:1014B00001684FF6FE721140016000210160416039
:1014C0008160C1608D49884208D18C4908394968DA
:1014D00041F00F01894A083A51608AE08749143186
:1014E000884208D185490839496841F0F001834AAA
:1014F000083A51607DE081492831884208D17F490E
:101500000839496841F470617C4A083A516070E0DA
:101510007A493C31884208D178490839496841F410
:101520007041764A083A516063E07449503188420C
:1015300008D172490839496841F470216F4A083A64
:10154000516056E06D496431884208D16B490839D1
:10155000496841F47001694A083A516049E06749B5
:101560007831884208D165490839496841F070618D
:10157000624A083A51603CE06149884206D1011F45
:10158000096841F00F01021F116032E05C4914311B
:10159000884208D15A49091F096841F0F001584AA8
:1015A000121F116025E056492831884208D154495C
:1015B000091F096841F47061514A121F116018E057
:1015C0004F493C31884208D14D49091F096841F40F
:1015D00070414B4A121F11600BE04949503188425B
:1015E00007D14749091F096841F47021444A121F75
:1015F0001160704710B50022026847F6F0739A43F5
:101600000C6A8B6823430C6923434C6923438C6920
:101610002343CC6923434C6A23438C6A23431A43F4
:101620000260CB6843600B6883604B68C36010BD89
:101630000021016041608160C1600161416181619F
:10164000C161016241628162704721B1026842F06A
:101650000102026004E002684FF6FE731A40026065
:1016600070471AB103680B43036002E003688B43C1
:1016700003607047416070470146486880B2704718
:1016800001460020002201F080531BB11C4B083B97
:101690001A6802E0194B083B1A6802EA01030BB111
:1016A000012000E00020704700F0805119B114497A
:1016B000091F086002E01149083948607047014677
:1016C0000020002201F080531BB10D4B083B1A682B
:1016D00002E00A4B083B1A6802EA01030BB1012041
:1016E00000E00020704700F0805119B10449091F43
:1016F000086002E00149083948607047080002406C
:101700000804024010B50446FE48844208D1012175
:10171000C014FFF757FA0021E014FFF753FAC4E0B2
:10172000B4F1804F08D101210846FFF758FA002193
:101730000120FFF754FAB8E0F348844208D10121B0
:101740000220FFF74CFA00210220FFF748FAACE034
:10175000EE48844208D101210420FFF740FA00211D
:101760000420FFF73CFAA0E0E948844208D10121B7
:101770000820FFF734FA00210820FFF730FA94E040
:10178000E448844208D101211020FFF728FA002103
:101790001020FFF724FA88E0DF48844208D10121B5
:1017A0002020FFF71CFA00212020FFF718FA7CE028
:1017B000DA48844208D101214014FFF703FA0021DE
:1017C0006014FFF7FFF970E0D548844209D1012188
:1017D000C804FFF7F7F900214FF40020FFF7F2F9F2
:1017E00063E0D048844209D101210805FFF7EAF9F6
:1017F00000214FF48010FFF7E5F956E0CA48844213
:1018000009D101214805FFF7DDF900214FF400104F
:10181000FFF7D8F949E0C548844208D101214020AA
:10182000FFF7DDF900214020FFF7D9F93DE0C0487E
:10183000844208D101218020FFF7D1F900218020C6
:10184000FFF7CDF931E0BB48844208D10121801572
:10185000FFF7C5F90021A015FFF7C1F925E0B6484B
:10186000844209D101210804FFF7ACF900214FF4AB
:101870008030FFF7A7F918E0B048844209D1012170
:101880004804FFF79FF900214FF40030FFF79AF961
:101890000BE0AB48844208D101218804FFF792F99C
:1018A00000214FF48020FFF78DF910BD002202883F
:1018B000944B98420ED0994B98420BD0B0F1804F88
:1018C00008D0914B984205D0904B984202D0904B53
:1018D000984204D14FF68F731A404B881A438D4BB0
:1018E000984207D08C4B984204D04FF6FF431A40E1
:1018F000CB881A4302808B8883850B880385814BB4
:1019000098420BD0854B984208D08B4B984205D01B
:101910008A4B984202D08A4B984201D10B7A0386B7
:1019200001238382704770B5002400220023058CB8
:101930004FF6FE7635400584028C8388048B4FF683
:101940008F752C40B51E2C400D882C43751E2A40E7
:101950000D892A434D882A436A4DA8420BD06F4D0A
:10196000A84208D0744DA84205D0744DA84202D0B8
:10197000734DA84213D14FF6F7752A404D892A437B
:101980004FF6FB752A408D882A434FF6FF652B40A2
:101990004FF6FF552B408D892B43CD892B438380F8
:1019A0000483CD888586028470BD70B50024002232
:1019B0000023058C4FF6EF7635400584028C838832
:1019C000048B48F6FF752C404FF6FF452C400D88E0
:1019D0004FF6FF7606EA05252C434FF6DF752A40C1
:1019E0000D8906EA05152A434D8806EA05152A439E
:1019F000444DA84202D0494DA8421DD14FF67F75F3
:101A00002A404D894FF6FF7606EA05152A434FF620
:101A1000BF752A408D8806EA05152A434FF6FF3523
:101A20002B404FF2FF752B408D8906EA85052B432D
:101A3000CD8906EA85052B4383800483CD880587FD
:101A4000028470BD70B5002400220023058C4FF67F
:101A5000FF6635400584028C8388848B4FF68F7532
:101A60002C404FF6FC752C400D882C434FF6FF554B
:101A70002A400D894FF6FF7606EA05252A434D8850
:101A800006EA05252A431F4DA84202D0234DA8424D
:101A90001DD14FF2FF752A404D894FF6FF7606EAB9
:101AA00005252A434FF6FF352A408D8806EA05258D
:101AB0002A434EF6FF752B404DF6FF752B408D895E
:101AC00006EA05152B43CD8906EA05152B438380CD
:101AD0008483CD888587028470BD70B50022002381
:101AE0000024058C4EF6FF7635400584038C8488EF
:101AF000828B48F6FF752A404FF6FF452A400D8835
:101B000020E00000002C01400004004000080040DC
:101B1000000C004000100040001400400034014060
:101B2000004C0140005001400054014000180040AA
:101B3000001C0040002000400040014000440140E3
:101B4000004801404FF6FF7606EA05252A434DF688
:101B5000FF752B400D8906EA05352B434D8806EAB3
:101B600005352B43FA4DA84202D0FA4DA84208D1C0
:101B70004BF6FF752C408D894FF6FF7606EA8515EA
:101B80002C4384808283CD88A0F84050038470BDAC
:101B9000828B4FF2FF331A408283828B4FF6FF73A2
:101BA00003EA01231A4382837047F0B50C461546B9
:101BB000002200210026078C4EF6FF7C07EA0C0766
:101BC0000784828B018C4FF6FF7707EA043640F6D4
:101BD000FF473A404FF6FF7707EA05273A434FF6AB
:101BE000FF7707EA03373A43D94FB8420ED0D94FAF
:101BF000B8420BD0B0F1804F08D0D74FB84205D0D3
:101C0000D64FB84202D0D64FB84206D14DF6FF7734
:101C1000394046F48057394305E047F6FF573940CD
:101C200044F48057394382830184F0BD828B4FF6A0
:101C3000F3731A408283828B0A4382837047F0B524
:101C40000C461546002200210026078C4FF6FF6C3B
:101C500007EA0C070784828B018C4FF6FF7707EAAF
:101C600004264FF60C773A404FF6FF7707EA031742
:101C70002F433A43B64FB8420ED0B64FB8420BD0BE
:101C8000B0F1804F08D0B44FB84205D0B34FB8423E
:101C900002D0B34FB84206D14FF6FF57394046F451
:101CA0008077394305E04FF2FF57394044F480779D
:101CB000394382830184F0BD028B4FF2FF331A4017
:101CC0000283028B4FF6FF7303EA01231A43028358
:101CD0007047F0B50C461546002200210026078CFF
:101CE0004FF6EF7C07EA0C070784028B018C4FF656
:101CF000FF7707EA041640F6FF473A404FF6FF77B2
:101D000007EA03373A434FF6FF7707EA05273A43D6
:101D10008F4FB8420ED08F4FB8420BD0B0F1804FEA
:101D200008D08D4FB84205D08C4FB84202D08C4FAE
:101D3000B84206D14FF6DF77394046F010073943F5
:101D400005E04FF65F77394044F0100739430283CE
:101D50000184F0BD028B4FF6F3731A400283028BAD
:101D60000A4302837047F0B50C4615460022002155
:101D7000068C4FF6FE773E400684028B018C4FF6B0
:101D80000C7632407E1C06EA03162E433243704E18
:101D9000B0420ED06F4EB0420BD0B0F1804F08D0A1
:101DA0006D4EB04205D06D4EB04202D06C4EB04286
:101DB00006D14FF6FD76314044F00106314305E08F
:101DC0004FF6F576314044F0010631430283018439
:101DD000F0BD70B505460C465D4885420ED05D48A5
:101DE00085420BD0B5F1804F08D05B48854205D0C5
:101DF0005A48854202D05A48854200D100E000BFCF
:101E0000208850B92389A28861882846FFF7ABFF54
:101E1000E1882846FFF79EFF25E0208804280AD1A4
:101E20002389A28861882846FFF753FFE188284666
:101E3000FFF742FF17E0208808280AD12389A288EB
:101E400061882846FFF7FBFEE1882846FFF7EEFE93
:101E500009E02389A28861882846FFF7A6FEE18869
:101E60002846FFF795FE70BD2DE9F04105460C466A
:101E700000260127608808B9022600E00026A08815
:101E8000012801D1022700E001272088A0B9238979
:101E9000A28861882846FFF766FFE1882846FFF799
:101EA00059FF23893A4631462846FFF712FFE18859
:101EB0002846FFF701FF13E02389A288618828469E
:101EC000FFF707FFE1882846FFF7F6FE23893A4629
:101ED00031462846FFF747FFE1882846FFF73AFFDB
:101EE000BDE8F0810A884B881A438B881A43CB8857
:101EF0001A430B891A434B891A438B891A43A0F85A
:101F0000442070474FF6FF71818000210180C1801D
:101F10004180017270470021018041808180C18031
:101F2000018141818181C18170470021018041800F
:101F3000012181800021C180018170470021018041
:101F400041808180C1800181418181817047000091
:101F5000002C014000340140000400400008004013
:101F6000000C004021B1028842F00102028004E02E
:101F700002884FF6FE731A400280704731B1B0F804
:101F8000442042F40042A0F8442005E0B0F8442088
:101F9000C2F30E02A0F8442070471AB183890B43A4
:101FA000838102E083898B438381704781827047FC
:101FB00041EA0203A0F8483070471AB183890B4305
:101FC000838102E083898B438381704701894FF6C7
:101FD000F8721140018170470A46002101894FF6CD
:101FE0008F73194011430181704730B504460D4687
:101FF00029462046FFF7F0FF208940F007002081A6
:1020000030BD2DE9F04104460D4616461F46602DB1
:1020100006D13B46012231462046FFF75AFE05E035
:102020003B46012231462046FFF79DFE29462046C9
:10203000FFF7D2FF208940F007002081BDE8F08142
:1020400030B50C4600210189C9B24FF6FF7505EA8B
:102050000325154325432943018130BD2DE9F04176
:1020600005460E4617469846002443463A463146F2
:102070002846FFF7E5FF2C894FF6F870044044F03E
:1020800007044FF68F70044044F070042C81BDE8C3
:10209000F081F0B504460D4616461F463B463246D3
:1020A00029462046FFF7CCFF208940F4804020815C
:1020B000F0BD0185828270470A46002101884FF6F3
:1020C0008F731940114301807047F0B50C461546D7
:1020D0001E460021002200230189028B038C4FF64B
:1020E000F877394021434FF6FC473A4040F2011758
:1020F0003A434FF6DD773B404FF6FF7707EA061786
:102100002F433B43018102830384F0BD0A46002133
:10211000018B4FF68F7319401143018370470A46B4
:102120000021018B48F6FF7319404FF6FF7303EA55
:1021300002231943018370470A460021818B4FF621
:102140008F7319401143818370470A460021818BA8
:1021500048F6FF7319404FF6FF7303EA0223194351
:102160008183704721B1028842F08002028004E03E
:1021700002884FF67F731A400280704721B182882F
:1021800042F00402828004E082884FF6FB731A401A
:102190008280704721B1828842F00802828004E088
:1021A00082884FF6F7731A408280704721B1828887
:1021B00042F00102828004E082884FF6FE731A40EA
:1021C000828070470A460021018B4FF6F773194051
:1021D0001143018370470A460021018B4FF2FF73C0
:1021E00019404FF6FF7303EA022319430183704736
:1021F0000A460021818B4FF6F77319401143818302
:1022000070470A460021818B4FF2FF7319404FF649
:10221000FF7303EA02231943818370470A460021B2
:10222000018B4FF6FB7319401143018370470A4637
:102230000021018B4FF6FF3319404FF6FF7303EA7D
:1022400002231943018370470A460021818B4FF610
:10225000FB7319401143818370470A460021818B2B
:102260004FF6FF3319404FF6FF7303EA0223194379
:10227000818370470A460021018B4FF67F73194016
:102280001143018370470A460021018BC1F30E01FF
:102290004FF6FF7303EA02231943018370470A468E
:1022A0000021818B4FF67F73194011438183704762
:1022B0000A460021818BC1F30E014FF6FF7303EA3A
:1022C00002231943818370470A460021018C4FF68F
:1022D000FD7319401143018470470A460021018CA7
:1022E0004FF6F77319401143018470470A460021E5
:1022F000018C4FF6DF7319404FF6FF7303EA0213A8
:102300001943018470470A460021018C4FF67F7300
:1023100019404FF6FF7303EA021319430184704713
:102320000A460021018C4FF6FF5319404FF6FF7308
:1023300003EA02231943018470470A460021018CF5
:102340004FF2FF7319404FF6FF7303EA022319435C
:10235000018470470A460021018C4DF6FF73194035
:102360004FF6FF7303EA023319430184704730B517
:10237000002301248C40A3B2048C9C430484048C6D
:1023800002FA01F5ADB22C43048430BD30B5002310
:1023900004248C40A3B2048C9C430484048C02FA71
:1023A00001F5ADB22C43048430BD70B50346002066
:1023B00000241846183001258D40ACB21D8CA54371
:1023C0001D8409B1082909D100EB6100056825F0D9
:1023D000700505600568154305600EE00D1FC5F327
:1023E0004E052844056825F4E045056005684FF66C
:1023F000FF7606EA02263543056070BD21B10288EA
:1024000042F00202028004E002884FF6FD731A4097
:102410000280704721B1028842F00402028004E089
:1024200002884FF6FB731A400280704721B1828800
:1024300042F08002828004E082884FF67F731A4067
:102440008280704702884FF6F7731A400280028834
:102450000A430280704782884FF68F731A40828049
:1024600082880A438280704702894FF6F8731A40C7
:10247000028102890A430281704702894FF67F7305
:102480001A40028102890A430281704781847047A1
:1024900081857047818670470187704781877047C3
:1024A000A0F84010704702884FF6FF431A400280A0
:1024B00002880A43028070470146888E70470146B1
:1024C000088F70470146888F70470146B1F8400079
:1024D00070470146888C70470146088D7047024658
:1024E0000020138A0B400BB1012000E00020704750
:1024F000CA430282704730B5024600200023002400
:10250000158A05EA0103958905EA010413B10CB1A6
:10251000012000E0002030BDCA4302827047000065
:1025200008B501210846FEF733FB01219548FEF767
:1025300044F901210820FEF72BFB10208DF8030041
:1025400041F2D800ADF8000003208DF80200694682
:102550008D48FEF761F808BD10B5012208218A48B0
:10256000FEF70BF910BD10B5002208218648FEF7D2
:1025700004F910BD10B5012211038348FEF7FDF8E0
:1025800010BD10B500224FF480517F48FEF7F5F8DA
:1025900010BD10B5012210217B48FEF7EEF810BDEA
:1025A00010B5002210217848FEF7E7F810BD10B5ED
:1025B000012280217448FEF7E0F810BD10B500221A
:1025C00080217148FEF7D9F810BD10B501224021D5
:1025D0006D48FEF7D2F810BD10B5002240216A48C0
:1025E000FEF7CBF810BD0120684908607047002055
:1025F00066490860704765480068704710B56448D0
:10260000006801280ED10A216248FFF743FF4FF40A
:10261000FA7000F09BFB0F215E48FFF73BFF0020A4
:102620005B49086010BD70B55848006801284DD15D
:10263000594800685949096888420FD158480068CC
:10264000401C5749086008460068012806D15048D8
:102650000068401C4E490860FFF7D0FF51495248BE
:10266000006803F0C1FA02D2FFF793FF01E0FFF721
:1026700097FF4E48006803F057FA044600224C4B7F
:1026800003F066FA0FD34948006803F04DFA044698
:102690000022484B03F074FA05D3474947480068C5
:1026A00003F0ACFA12D24648006846490860084672
:1026B0000068C01C444908604248006809688842B4
:1026C00002D0FFF757FF01E0FFF75BFF70BD10B5C9
:1026D0004FF480512C48FEF73FF83C490860102128
:1026E0002948FEF739F83A49086008212648FEF7DC
:1026F00033F838490860FFF77EFF3749086040210A
:102700002148FEF729F83549086040211E48FEF7A8
:1027100023F83349086010BD10B54FF4A060FDF7F1
:10272000ADFE00F0DDFA41F61F41C72000F092FA3D
:1027300041F61F4142F20F7000F07AFD4FF4E13094
:1027400000F05CF84FF4E13000F0ABF8FFF7E8FE82
:1027500000F015FA01F009F801F080F900F03AFBF9
:102760004FF4E13000F0CAFD00F01AFC00BF00F0A9
:1027700037FC0028FBD102F006FE1AA11E4800F02B
:10278000FBF810BD00023000000C01403C000020AE
:102790004000002000040040D8000020EC00002091
:1027A000440000200000A041E4000020E8000020D8
:1027B00000001A400000214000002F44BC0000200F
:1027C000DC000020500000205400002030000020D9
:1027D0002C000020380000202800002048000020A5
:1027E0004C00002020486172647761726520696E38
:1027F0006974204F4B0D0A000038014010B586B0B7
:10280000044601210420FEF7C3F901218803FEF7E5
:10281000BFF918208DF817004FF40070ADF81400C0
:1028200003208DF8160005A96B48FDF7F5FE04207E
:102830008DF817000002ADF8140003208DF8160083
:1028400005A96548FDF7E8FE01940020ADF81000E9
:102850000C20ADF80E000020ADF80C00ADF80A0019
:10286000ADF8080001A95D48FEF739FA01215B487F
:10287000FEF7C1FA012240F225515848FEF7C7FA87
:1028800025208DF8000001208DF8030000208DF830
:10289000010003208DF802006846FDF7F4FD06B044
:1028A00010BD10B586B0044601210820FEF770F96E
:1028B00001218804FEF779F918208DF817004FF4EC
:1028C0008060ADF8140003208DF8160005A9444877
:1028D000FDF7A2FE04208DF817004002ADF81400A9
:1028E00003208DF8160005A93D48FDF795FE0194DB
:1028F0000020ADF810000C20ADF80E000020ADF85F
:102900000C00ADF80A00ADF8080001A93548FEF743
:10291000E6F901213348FEF76EFA012240F2255113
:102920003048FEF774FA27208DF8000001208DF85A
:10293000030000208DF801008DF802006846FDF7C5
:10294000A2FD06B010BD2DE9F04107460C46154624
:1029500000260DE014F8011B3846FEF7B9FA00BF57
:1029600040213846FEF722FB0028F9D0701C86B2C1
:10297000AE42EFDBBDE8F0810FB430B5CBB0054619
:1029800001AC50A800904FF4947101A8009B4F9A9D
:1029900003F022FB002000900BE014F8011B2846F6
:1029A000FEF796FA00BF40212846FEF7FFFA0028FE
:1029B000F9D020780028F0D14BB030BC5DF814FB82
:1029C00010B540F225510548FEF706FB18B120214D
:1029D0000248FEF7F8FA10BD000801400038014037
:1029E000000C01400048004010B59648006820F0F7
:1029F000F000944908600846006840F03000086024
:102A000000209149086040F2EE2000F081F9012099
:102A10008E49C1F8A4010F2000F07AF910BD10B55D
:102A200000248848006820F0F000864908600846C5
:102A3000006840F08000086004E0601CC4B201201F
:102A400000F066F980488038006808B1C82CF4DBD3
:102A5000C82C01DB012010BD002404E0601CC4B2BE
:102A6000012000F055F978488038006808B9F02C4A
:102A7000F4DBF02C01DB0120EDE70020EBE710B5E3
:102A80007048006820F0F0006E4908600846006851
:102A900040F03000086000206B490860022000F020
:102AA00037F901206949C1F8A4016648006820F09F
:102AB000F000644908600846006840F08000086043
:102AC0000C2000F025F960488038006808B1012426
:102AD00000E00024322000F01BF9204610BD70B544
:102AE0000026012508E0FFF7CAFF0446E00140EA9E
:102AF0006600C6B2681CC5B2082DF4DD304670BD54
:102B000070B504464F48006820F0F0004D49086059
:102B10000846006840F030000860012520E004F01D
:102B2000010664106EB1002047490860022000F0E1
:102B3000EFF801204549C1F8A4013C2000F0E8F875
:102B40000CE00020404908603C2000F0E1F8012042
:102B50003E49C1F8A401022000F0DAF8681CC5B2B1
:102B6000082DDCDD70BD10B5FFF73EFFFFF757FF06
:102B7000CC20FFF7C5FF4420FFF7C2FF10BD08B50A
:102B800001210820FEF704F84FF40070ADF80000B2
:102B900010208DF8030003208DF8020069462948B3
:102BA000001FFDF739FD4FF400712648001FFDF7A7
:102BB000E0FDFFF719FFFFF732FF08BD2DE9F84FE1
:102BC000FFF7D1FFFFF710FFFFF729FFCC20FFF73A
:102BD00097FFBE20FFF794FFFFF781FF8346FFF7C3
:102BE0007EFF0446072C08DDE043C4B26FEA0B0009
:102BF00000F0FF0B4FF0000A01E04FF0010AA14680
:102C00004FEA09200FFA80F909EB0B000FFA80F95F
:102C1000484602F032FF009002F086FF074600228D
:102C20000B4B02F049FE054602F05FFF0FFA80F9F8
:102C3000BAF1000F02D04846BDE8F88FC9F1000094
:102C400000B2F9E7040C0140A48121420080214236
:102C50000000E43F30B589B005460C460121042050
:102C6000FDF796FF01210220FDF79FFF0121084695
:102C7000FDF78EFF18208DF823004020ADF82000CE
:102C800003208DF8220008A91348FDF7C5FC002099
:102C9000ADF81A00ADF81600ADF81850ADF81440B4
:102CA0006020ADF804000020ADF80E000120ADF862
:102CB000060005A90948FEF7F9FD01A90748FEF736
:102CC00032FE08210548FFF77DFA01210348FFF78E
:102CD00049F909B030BD000000080140000400407F
:102CE0004FF0E020006920F004004FF0E02108617F
:102CF0000920364908700846007800EB4001C1EB16
:102D0000C0104FF6FF7101EAC000314908807047DA
:102D1000002120F07F402D4A127842434FF0E023FB
:102D20005A6100229A6101221A6100BF4FF0E0222D
:102D3000116901F001021AB101F48032002AF5D0C4
:102D400000224FF0E0231A619A617047002100B918
:102D5000704720F07F401E4A128842434FF0E02324
:102D60005A6100229A6101221A6100BF4FF0E022ED
:102D7000116901F001021AB101F48032002AF5D084
:102D800000224FF0E0231A619A6100BFE0E770B5BE
:102D90000446002600254FF4FA7094FBF0F0C6B20A
:102DA0004FF4FA7094FBF0F100FB114085B205E09E
:102DB0004FF4FA70FFF7CAFF701EC6B2002EF7D1AB
:102DC00015B12846FFF7C2FF70BD00005800002073
:102DD0005A00002010B56FF00400FDF79EFB2E484E
:102DE00000682E49B0FBF1F02D49087008460078C4
:102DF00000EB4001C1EBC0104FF6FF7101EAC000CB
:102E00002849088010BD0146254A12784A434FF0F0
:102E1000E0235A6100229A611A46126942F00102C7
:102E20001A6100BF4FF0E022106900F001021AB1F0
:102E300000F48032002AF5D04FF0E022126922F02F
:102E400001024FF0E0231A6100229A6170470146A7
:102E5000144A12884A434FF0E0235A6100229A61D3
:102E60001A46126942F001021A6100BF4FF0E022D7
:102E7000106900F001021AB100F48032002AF5D086
:102E80004FF0E022126922F001024FF0E0231A61B4
:102E900000229A61704700000000002000127A00B2
:102EA0005C0000205E00002010B54FF416719E48B3
:102EB00002F09FFB00209D49088010BD70B50446BC
:102EC00000259B48008800F4004058B10020984934
:102ED0000988C1F30E01944A50542146104602F06D
:102EE0009FFB0546284670BD2DE9F04105460C467E
:102EF0006426002700208E49088029468DA000F016
:102F000050FAB4B1AEB10FE00A20FFF7A0FF884835
:102F1000008800F4004038B12046FFF7CFFF00B131
:102F200006E0002082490880301EA6F10106EBD1A0
:102F300000BF17B10120BDE8F0810020FBE710B50C
:102F400000BF7E48008800F040000028F9D02B2008
:102F50007A49091D08800F20FFF779FF00BF7748E5
:102F6000008800F040000028F9D02B207349091D8B
:102F700008800F20FFF76BFF00BF7048008800F04B
:102F800040000028F9D02B206C49091D08804FF41F
:102F9000FA70FFF75CFF6AA16AA0FFF7A5FF10BDFA
:102FA00010B5FFF781FF00BF65A167A0FFF79CFF89
:102FB0000028F9D100BF62A165A0FFF795FF0028A6
:102FC000F9D100BF5EA166A0FFF78EFF0028F9D1FE
:102FD00000BF5BA166A0FFF787FF0028F9D110BDF5
:102FE0002DE9F0412821002000F0E3FA04460A21EF
:102FF000002000F0DEFA07462821002000F0D9FA70
:1030000005464FA163A0FFF76FFF064636B1214684
:10301000002000F0BEFA0120BDE8F0814FF4967068
:10302000FFF715FF00BF46A166A0FFF75DFF002870
:10303000F9D100BF42A167A0FFF756FF0028F9D1E0
:1030400067A000F0AEF91420FFF701FF0020384917
:1030500008804FF47A70FFF7FAFE3548008800F4D4
:10306000004030B1002032490988C1F30E012E4AD8
:10307000505468A700202E490988C1F30A012A4A42
:1030800050543946104602F0CBFA002840D063A7CE
:103090003946254802F0C4FA0546A5F109046078CE
:1030A00030382178303901EB810100EB41000830E4
:1030B000182190FBF1F201FB1200594908712079A7
:1030C0003038E178303901EB810100EB41003C21DF
:1030D00090FBF1F201FB120051494871E079303860
:1030E000A179303901EB810100EB41003C2190FBDB
:1030F000F1F201FB12004A49887100200C49088056
:103100000880394600F045FA2946002000F041FACF
:10311000FFF715FF0AA143A0FFF7E6FE21460020B6
:1031200000F037FA002077E704010020600000205B
:103130006C00002025730D0A0000000000440040D0
:103140004F4B00004154000041540D0A00000000A4
:1031500041542B43574D4F44453D310D0A0000006B
:1031600041542B4349504D55583D300D0A00000045
:1031700041542B43574A41503D224843303430316B
:1031800032222C2230343031323034303132220D80
:103190000A00000041542B43495053544152543DBE
:1031A00022544350222C227777772E6265696A6910
:1031B0006E672D74696D652E6F7267222C38300D25
:1031C0000A00000041542B4349504D4F44453D31C6
:1031D0000000000041542B43495053454E44000029
:1031E000474554202F74696D6531352E6173702009
:1031F000485454502F312E31486F73743A77777793
:103200002E6265696A696E672D74696D652E6F72CD
:10321000670D0A004461746500000000474D5400CA
:103220006400002041542B434950434C4F53450008
:103230007FB505460C4601210846FDF7B6FCADF802
:103240000850ADF804400020ADF80A00ADF80600C3
:1032500001A94FF08040FEF729FB0122114690079B
:10326000FEF79BFE1C208DF8000000208DF8010069
:1032700002208DF8020001208DF803006846FDF75A
:1032800002F901218807FEF76DFE7FBD10B501210F
:103290008807FFF730F940B104480068401C034933
:1032A000086001218807FFF737F910BDE000002012
:1032B00010B540F225514D48FDF78EFEE8B14B4860
:1032C000FDF70AFEC4B24A48008800F40040A0B9E5
:1032D00047480088B0F5167F09DA45480088444918
:1032E0000888411C424A118042490C5405E040487C
:1032F000008840F400403E49088010BD10B586B0FB
:10330000044601210420FDF743FC01214804FDF798
:103310004CFC3648FDF7A0FC0420ADF8100003205B
:103320008DF8120018208DF8130004A93248FDF71B
:1033300073F90820ADF8100004208DF8130004A9DB
:103340002D48FDF769F900940020ADF80400ADF8B0
:103350000600ADF80800ADF80C000C20ADF80A002E
:1033600069462248FDF7BBFC01212048FDF743FDDB
:10337000012240F225511D48FDF749FD26208DF818
:10338000140000208DF8150001208DF816008DF82E
:10339000170005A8FDF777F800201549088006B04A
:1033A00010BD0FB438B505A800901448009A0499D0
:1033B00002F028FE00200090104802F04DF985B27E
:1033C00000240DE000BF40210848FDF7EFFD002874
:1033D000F9D00A48015D0548FDF77AFD601C84B20A
:1033E000AC42EFDB38BC5DF814FB00000044004049
:1033F0006C00002004010020000801405C03002054
:1034000070B503460C4603E014F8015B03F8015B5A
:10341000151EA2F10102F7D170BD30B5034601E0DF
:1034200003F8011B141EA2F10102F9D130BD10B541
:103430000446894951F824104A00884951F824006B
:103440000021FFF7EAFF864951F824208349083913
:1034500051F824000021FFF7E0FF01217F480830E8
:10346000015510BD10B501460023002207E07B483E
:1034700050F8210030F8120000B15B1C521C764855
:1034800050F821009042F2D864205843724C54F80E
:103490002140B0FBF4F0C0B210BD2DE9F047044666
:1034A0000F460025A9466D480830005D20B96B48DD
:1034B00010380168204688471FB94FF0FF30BDE83B
:1034C000F087684850F82400B7FBF0F6654850F8DC
:1034D0002400B7FBF0F100FB117000B1761C5E48D0
:1034E00050F82400451E20E05C4850F8240030F8D5
:1034F000150010B909F1010901E04FF00009B145CB
:1035000012D14FF0000808E0544850F8240005EBB1
:10351000080220F8126008F10108B045F4D35148C0
:1035200050F824006843CAE76D1E002DDCDA4FF026
:10353000FF30C4E72DE9F04104460E464748083005
:10354000005D38B945481038016820468847012099
:10355000BDE8F081424850F82400B04217D94148F4
:1035600050F82400B6FBF0F13C4850F8240030F845
:103570001120002507E00023384850F824004F1997
:1035800020F817306D1C9542F5DB0020E0E70220A3
:10359000DEE770B505460C4604B970BD2F48083803
:1035A00050F82500261A31462846FFF7C3FF00BF12
:1035B000F3E770B504460E4631462046FFF76DFF2F
:1035C0000546681C08B9002070BD2448083850F82A
:1035D00024002844F8E72DE9F04104460F4616463A
:1035E00031462046FFF759FF0546681C10B90020F8
:1035F000BDE8F0811949083951F8241048193246BC
:103600003946FFF7FDFE39462046FFF7C2FF134853
:10361000083850F824002844EAE770B504462146EB
:103620000020FFF73AFF0546681C08B9002070BD6E
:103630000A48103880682844F9E770B5044604B990
:1036400070BD064810388068251A29460020FFF70B
:1036500071FF00BFF4E70000E0690008800000206F
:10366000F0690008E869000808B501210420FDF7A9
:103670008FFA0120ADF8000000208DF803006946A4
:103680003D48FCF7C9FF08BD00B591B001210846CF
:10369000FDF771FA01214802FDF77AFA3748FDF784
:1036A00007FF374806903748079000200890012010
:1036B000099000200A900B904FF480700C908000CD
:1036C0000D9020200E9000020F900020109006A96F
:1036D0002A48FDF78FFF01212848FDF7B6FF00209B
:1036E00001908DF8080001208DF809004FF460204A
:1036F00003900020049001208DF8140001A92048B7
:103700004C38FDF7D4FC4FF44040FDF7A5F90523F4
:10371000012211461A484C38FDF761FD0121184875
:103720004C38FDF7FBFC012115484C38FDF7EBFC4C
:1037300013484C38FDF709FD00BF11484C38FDF720
:1037400009FD0028F9D10E484C38FDF70DFD00BFEA
:103750000B484C38FDF70DFD0028F9D10121084830
:103760004C38FDF710FD11B000BD10B5FFF77CFF20
:10377000FFF78AFF10BD000000080140080002406A
:103780004C2401408C0000202DE9F04F93B09E485E
:10379000008802F07BF981464FF08B4101F0A7FFD2
:1037A000044602F0C1F907464FF06632974B02F02B
:1037B00083F8054602F0FCF99549086095480068D1
:1037C00002F0B2F982460022934B02F06FF8804675
:1037D000924A934B02F070F806460022914B01F09A
:1037E000C4FF044602F0E4F98F4908600846016806
:1037F0008748006801F07BFF8C4908608C480068AE
:1038000002F092F9CDE90E018848006802F08CF9C7
:103810000446824A5242874B02F04EF8CDE9080135
:103820008248006802F080F904460D467F4800682F
:1038300002F07AF98046804A804B02F03DF8064655
:1038400022462B4602F038F8CDE90401774800689B
:1038500002F06AF904460D467448006802F064F903
:10386000804689467148006802F05EF98246744AD3
:10387000744B02F021F842464B46CDE9000102F0BC
:103880001BF8064622462B4602F016F8CDE9020147
:10389000DDE9042302F00AF8CDE90601DDE9082399
:1038A00001F063FF0022684BCDE90A0102F004F841
:1038B000CDE90C01DDE90E2301F0FEFFCDE9100199
:1038C00002F076F96149086000216048006802F062
:1038D0008BF902D800205D4908605D495B480068AB
:1038E00002F08CF902D25A485849086057480068DB
:1038F00002F0E2F84FF47A7190FBF1F03030554964
:1039000008705248006802F0D7F84FF47A7190FBC3
:10391000F1F201FB1200642190FBF1F030304D49CF
:1039200048704A48006802F0C7F8642190FBF1F241
:1039300001FB12000A2190FBF1F0303045498870FC
:103940004248006802F0B8F80A2190FBF1F201FB4E
:10395000120030303F49C87013B0BDE8F08F2DE938
:10396000FC47FFF72BF90A2190FBF1F201FB120A49
:10397000504602F090F806460022374B02F00EF84F
:1039800004460D46FFF71AF90A2190FBF1F630467E
:1039900002F081F8804622462B4601F0E6FECDE992
:1039A000000102F005F91B4908600846006802F0B2
:1039B00083F84FF47A7190FBF1F201FB120064215D
:1039C00090FBF1F03030234908711248006802F092
:1039D00073F8642190FBF1F201FB12000A2190FBC5
:1039E000F1F030301B4948712E2088710948006879
:1039F00002F062F80A2190FBF1F201FB1200303074
:103A00001449C871BDE8FC878C00002066660A4036
:103A1000B8000020C4000020000039407B14AE47ED
:103A2000E17A943F0000F03FC8000020CC00002065
:103A3000D00000201ECB8A40EC51B81E85FB6F40A1
:103A40003D0AD7A370AD60400000E03FBC000020FD
:103A50000000AF44C04700200000244000B587B0FC
:103A6000012140F20440FDF793F80220ADF8180060
:103A700001208DF81A0000208DF81B0006A92548AA
:103A8000FCF7CAFD4FF40040FCF7E6FF2248FDF7C3
:103A9000E7FA002001908DF808008DF809004FF436
:103AA000602003900020049001208DF8140001A9EB
:103AB0001948FDF7FCFA01211748FDF724FB1648C9
:103AC000FDF743FB1448FDF74FFB00BF1248FDF71D
:103AD00041FB0028FAD100BF0F48FDF74AFB002840
:103AE000FAD107B000BD10B50446072301222146D4
:103AF0000948FDF774FB01210748FDF744FB00BFAF
:103B000002210548FDF7B0FC0028F9D00248FDF776
:103B1000CDFB10BD00080140002801400025002613
:103B20000024FEF7F9FD3348007933490860314835
:103B30004079324908602F4880793149086003E0B4
:103B40004FF4FA70FFF702F900F070F80028F7D18F
:103B50004FE0FFF704FFFFF717FE701C80B2064628
:103B600041F27071884207DB00F0CAF818B925A14C
:103B70002848FEF701FF0026681C80B20546B0F514
:103B8000487F08DB24A12348FEF7F6FE00F0FCF98D
:103B9000002501F07BFB1420FFF7D8F8FEF797FD16
:103BA000FEF741FD002001F0CCFB044614B1204695
:103BB00000F06AFB124800683C2807DB002010492F
:103BC00008600E480068401C0C4908600B480068FB
:103BD0003C2807DB00200949086007480068401CB2
:103BE0000549086004480068182802DB00200249E3
:103BF0000860AEE764000020D8000020DC00002050
:103C0000E000002070696E672073756363657373ED
:103C10000D0A0000003801404F6E654E65745F5319
:103C2000656E64446174610D0A00000030B58BB0AC
:103C300000200790089009900A900125DFA0E2A3D8
:103C4000E3A2E5A10090F048FEF796FE07A8002148
:103C500002910391CDE9041000912B02D7A20191AA
:103C6000D9A1DBA000F067FD002842D1089A91B2EB
:103C7000079801F04FFBFA2001F063FB0446002C8B
:103C800033D0204600F022FD02282ED1204600F03D
:103C9000B7FE062823D2DFE800F003090E13181D33
:103CA000DAA1D948FEF768FE00251DE0DCA1D64860
:103CB000FEF762FE18E0E1A1D348FEF75DFE13E0D7
:103CC000E7A1D148FEF758FE0EE0EDA1CE48FEF781
:103CD00053FE09E0F3A1CC48FEF74EFE04E0FCA140
:103CE000C948FEF749FE00BF00BF07A800F0A6FCC8
:103CF00003E0FEA1C448FEF73FFE28460BB030BDEE
:103D00007FB5002000900190029003900125684645
:103D100000F094FC684601F0A0FAB8B9019A91B29B
:103D2000009801F0F7FA4FF4FA7001F00AFB04462C
:103D300034B1204600F0CAFC0D2804D1002502E071
:103D4000284604B070BD684600F078FC2846F8E7C5
:103D50002DE9F04FC3B082460120FFF7C4FE019069
:103D600001F094FE834601F0DFFE80464FF066329C
:103D7000E74B01F0A1FDE74AE74BCDE9020101F075
:103D80009BFD0646E54AE64B01F0EFFC044601F0D8
:103D90000FFFE4490860FEF711FF0A2190FBF1F2E2
:103DA00001FB120B584601F076FE0022DE4BCDE9F6
:103DB000020101F0F3FD04460D46FEF7FFFE0A2165
:103DC00090FBF1FB584601F066FE064622462B4664
:103DD00001F0CBFC804601F0EBFED4490860FC21E9
:103DE00004A801F006FCD2A00088AAF80000FC217B
:103DF00004A801F0FEFBCD48006801F095FE0446E2
:103E000022460B46CBA104A802F0D2F804A95046E2
:103E100001F0FAFBFC2104A801F0EBFBC948CAA1A0
:103E2000026804A802F0C4F804A9504601F0ECFBB3
:103E3000FC2104A801F0DDFBC648C7A1026804A864
:103E400002F0B6F804A9504601F0DEFBFC2104A8FC
:103E500001F0CFFBC348C4A1026804A802F0A8F88F
:103E600004A9504601F0D0FBFC2104A801F0C1FBDD
:103E7000C148006801F058FE044622460B46BFA127
:103E800004A802F095F804A9504601F0BDFBFC21FE
:103E900004A801F0AEFBA348006801F045FE04460B
:103EA00022460B46B8A104A802F082F89D4800689B
:103EB00001F03AFE044622460B46B6A15248FEF7F0
:103EC0005BFD04A9504601F09FFBFC2104A801F012
:103ED00090FBB248B2A1026804A802F069F804A9F4
:103EE000504601F091FBFC2104A801F082FBB04890
:103EF000B0A1026804A802F05BF804A9504601F0E2
:103F000083FBFC2104A801F074FBAE48AEA102685B
:103F100004A802F04DF804A9504601F075FBFC21FD
:103F200004A801F066FBAB48ABA1026804A802F04C
:103F30003FF804A9504601F067FBFC2104A801F0FA
:103F400058FBAA48AAA1026804A802F031F804A903
:103F5000504601F059FBFC2104A801F04AFBA84897
:103F6000A8A1026804A802F023F804A9504601F0B1
:103F70004BFBA7A1504601F047FB504601F06CFBFC
:103F8000C0B243B0BDE8F08F30B5C5B0002041905D
:103F9000429043904490002400259EA11A48FEF7C9
:103FA000EBFCFC2102A801F024FB02A8FFF7D0FEE5
:103FB0000446002C00D03DE164E100003931353584
:103FC0003238333438000000687573680000000030
:103FD00034393936333000004F6E654E65745F44B6
:103FE00065764C696E6B0D0A50524F49443A202554
:103FF000732C09415549463A2025732C09444556EE
:1040000049443A25730D0A00003801405469707321
:104010003A09C1ACBDD3B3C9B9A60D0A000000006E
:104020005741524E3A09C1ACBDD3CAA7B0DCA3BABE
:10403000D0ADD2E9B4EDCEF30D0A00005741524E97
:104040003A09C1ACBDD3CAA7B0DCA3BAB7C7B7A8F9
:10405000B5C4636C69656E7469640D0A0000000084
:104060005741524E3A09C1ACBDD3CAA7B0DCA3BA7E
:10407000B7FECEF1C6F7CAA7B0DC0D0A00000000FB
:104080005741524E3A09C1ACBDD3CAA7B0DCA3BA5E
:10409000D3C3BBA7C3FBBBF2C3DCC2EBB4EDCEF30F
:1040A0000D0A00005741524E3A09C1ACBDD3CAA710
:1040B000B0DCA3BAB7C7B7A8C1B4BDD328B1C8C8CC
:1040C000E7746F6B656EB7C7B7A8290D0A000000CB
:1040D0004552523A09C1ACBDD3CAA7B0DCA3BACE8F
:1040E000B4D6AAB4EDCEF30D0A0000005741524EEB
:1040F0003A094D5154545F5061636B6574436F6E60
:104100006E656374204661696C65640D0A00000089
:1041100066664A3F07CE1951DADB17C0E17A14AE62
:1041200047413640E800002000002440E400002021
:104130007B0000002254454D50223A252E31662C3A
:1041400000000000D80000202274696D65223A2525
:10415000642C0000DC000020226D696E223A256488
:104160002C000000E0000020227365636F6E642263
:104170003A25642C00000000BC0000202254445367
:10418000223A252E31662C00227048223A252E3103
:10419000662C000070483A252E3166004800002049
:1041A0002273776974636831223A25642C00000019
:1041B0004C0000202273776974636832223A2564C8
:1041C0002C0000002C0000202274656D70223A251E
:1041D000642C000030000020227265647563655F06
:1041E0007761746572223A25642C00003800002043
:1041F000226164645F7761746572223A25642C00E1
:1042000028000020226175746F223A2564000000A6
:104210007D000000546970733A094F6E654E6574F5
:104220005F53656E64446174612D4D5154540D0AA1
:104230000000000041A80323002221460090AFF2B5
:10424000842000F08BFCC8B908E002A8415D429AC6
:10425000501C429041988154681C05B2A542F4DB81
:10426000429A91B2419801F055F89CA19F48429A18
:10427000FEF782FB41A800F0E1F903E09CA19B4816
:10428000FEF77AFB45B030BD2DE9F04F8FB0814687
:1042900000200B900C900D900E900A9009900890C1
:1042A000002600270025002480468246834698A0E9
:1042B00007909AA006909AA00590AFF2AC00006813
:1042C0000190484600F002FA0646042E25D00F2E33
:1042D0002CD108AB0AAA09A9484600F06BFC074696
:1042E000D7B9BDF8200000908FA18048DDE90923EF
:1042F000FEF742FB0BAADDE9090100F0A1FC58B969
:1043000092A17A48FEF738FB0C9A91B20B9801F013
:1043100001F80BA800F092F90BE0484600F0F2FE1D
:1043200018B990A17148FEF727FB02E04FF0FF3764
:1043300000BF00BF00F0AAFF781C10B90FB0BDE8A5
:10434000F08F7B210A9801F07DF9054605E015F80C
:10435000012B2046641C02A90A5428780028F6D1B3
:1043600001A902A801F094F9804608F101008046F5
:10437000824601A9002001F08BF98046C346002D3A
:104380000FD0781C0028FBD07EA10A9801F048F9D4
:1043900068B1584601F09EF90446012C02D1FEF79F
:1043A000DBF88FE0002CFCD1FEF7DDF88AE078A185
:1043B0000A9801F035F968B1584601F08BF90446C6
:1043C000012C02D1FEF7D6F87CE0002C7AD1FEF762
:1043D000D8F877E072A10A9801F022F968B158463E
:1043E00001F078F90446012C02D1FEF7D2F869E019
:1043F000002C67D1FEF7D4F864E06BA10A9801F0B5
:104400000FF968B1584601F065F90446012C02D154
:10441000FEF7CDF856E0002C54D1FEF7CFF851E06E
:1044200063A10A9801F0FCF868B1584601F052F90E
:104430000446012C02D1FEF7C8F843E0002C41D11C
:10444000FEF7CAF83EE05CA10A9801F0E9F858B11D
:10445000584601F03FF90446012C04D15849086040
:10446000FEF7CCF82EE02DE056A10A9801F0D8F81E
:1044700060B1584601F02EF90446012C02D1FEF736
:10448000B2F81FE0F4B9FEF7B2F81BE04FA10A98AA
:1044900001F0C6F858B103E04FF4FA70FEF756FC8D
:1044A0004CA1504600F010FF0028F5D10AE04AA1C7
:1044B0000A9801F0B5F828B1584601F00BF9044606
:1044C000474804600F2E01D0032E05D1099802F051
:1044D00029FA0A9802F026FA00BF2FE753656E64A6
:1044E0002025642042797465730D0A00003801406C
:1044F0005741524E3A094544505F4E6577427566C2
:10450000666572204661696C65640D0A00000000F2
:104510002241542B43574A41503D2200222C220075
:10452000220D0A2200000000636D6469643A2025B0
:10453000732C207265713A2025732C207265715F8F
:104540006C656E3A2025640D0A0000005469707392
:104550003A0953656E6420436D64526573700D0AA9
:1045600000000000546970733A094D5154542050B2
:1045700075626C6973682053656E64204F4B0D0A39
:10458000000000006164645F776174657200000080
:104590007265647563655F77617465720000000021
:1045A00074656D7000000000737769746368310092
:1045B00073776974636832006665656400000000A3
:1045C000400000206175746F000000007769666923
:1045D000000000004F4B000074696D650000000092
:1045E000EC00002070B504460E460025206898B9FE
:1045F00001202073304602F0BDF920602068E0B150
:1046000000206060A66003E00020216848556D1C12
:10461000A068A842F8D810E00220207303E0002030
:10462000216848556D1CA068A842F8D80020606039
:10463000A068B04201D20020206070BD10B50446D1
:10464000207B012802D1206802F06CF90020206054
:104650006060A060207310BD0246002301230DE0BE
:1046600002F07F000870D2092AB1087840F080007B
:104670000870491C01E0184670475B1C042BEFDDF5
:104680004FF0FF30F8E7F0B504460D46264601230B
:1046900000201060002114E0775C07F07F071068AD
:1046A00007FB03001060705C00F0800008B9481C34
:1046B000F0BDDB01B3F5001F02D36FF00100F7E797
:1046C000491CA942E8DB4FF0FF30F1E7F8B504469A
:1046D000FF2720780511012D01DB0E2D01DD384665
:1046E000F8BD032D24D1002000906A460421601CEF
:1046F000FFF7C9FF2044461C0098022803D3207806
:1047000000F0010008B1FF20EAE77078317840EA54
:104710000120801C0099884201D9FF20E0E7FEA11A
:10472000B01C00F07DFF08B10F2700E0032700E078
:104730002F463846D4E72DE9FF4F83B082468B469B
:104740009146159C0025002002900F2701904846B5
:1047500000F082FF0FFA80F8B9F1000F03D10120B9
:1047600007B0BDE8F08F08F10200384487B2109816
:1047700008B145F00205129878B145F00405129889
:1047800000F06AFFC0B20290139800F065FF014686
:104790000298001D0844384487B2119820B10128BE
:1047A00004D0022808D104E000BF07E045F00C0562
:1047B00004E045F0140501E00220D1E700BF1498A1
:1047C00008B145F02405BAF1000F02D0BBF1000F8B
:1047D00001D10320C4E745F0C005504600F03CFF7E
:1047E0000646584600F038FF3044001D384487B272
:1047F00039462046FFF7F6FE206808B90420AFE7E7
:104800003946206800F0F5FE10216268501C606097
:1048100020688154D4E90023D118781FFFF71CFFCA
:1048200000B201900198002804DA2046FFF706FF45
:10483000052095E76168019808446060002162687E
:10484000501C60602068815404216268501C6060C4
:10485000206881544D216268501C6060206881543A
:1048600051216268501C6060206881545421626844
:10487000501C6060206881546268501C6060206831
:10488000815404216268501C606020688154616812
:10489000481C6060206845540698010A6268501CF4
:1048A0006060206881540698C1B26268501C6060E4
:1048B00020688154C8F307216268501C606020683A
:1048C00081546268501C6060206800F80280D4E95E
:1048D000001288184246494600F0C5FE6068404410
:1048E000606005F00400B8B30026139808B98CA0E6
:1048F0001390129800F0B0FE86B2310A6268501C24
:104900006060206881546268501C60602068865432
:10491000D4E9001288183246129900F0A4FE6068AB
:1049200030446060139800F097FE86B2310A6268E6
:10493000501C6060206881546268501C6060206870
:104940008654D4E9001288183246139900F08BFE81
:1049500060683044606000BF05F08000C8B1504618
:1049600000F07AFE86B2310A6268501C60602068EE
:1049700081546268501C606020688654D4E900123B
:1049800088183246514600F06EFE60683044606020
:1049900000BF05F04000C8B1584600F05DFE86B289
:1049A000310A6268501C6060206881546268501C43
:1049B000606020688654D4E900128818324659464F
:1049C00000F051FE60683044606000BF0020C7E620
:1049D00010B5044602212046FFF704FE206808B9FE
:1049E000012010BDE0216268501C60602068815485
:1049F00000216268501C6060206881540020F0E74C
:104A000001464878022801D001207047887810B10B
:104A10008878012801D1C878F7E7FF20F5E72DE96C
:104A2000F84F8046894693469A460D9C00270025FC
:104A3000002000900026B8F1000F02D10120BDE84F
:104A4000F88F00250AE019F80500232803D019F88B
:104A500005002B2801D10220F1E76D1C19F8050093
:104A60000028F0D146F030060B9808B146F0010658
:104A700005EB0A00871C0A9820B1012804D00228FF
:104A80000AD105E000BF09E046F00206BF1C05E0C0
:104A900046F00406BF1C01E00320D0E700BFF91C6C
:104AA0002046FFF79FFD206808B90420C7E7F91CDE
:104AB000206800F09EFD6168481C606020684654D4
:104AC000D4E9000281183846FFF7C6FD009000982F
:104AD000002804DA2046FFF7B1FD0520AFE7616842
:104AE000009808446060C5F307216268501C60604C
:104AF000206881546268501C606020688554D4E945
:104B0000001288182A46494600F0ADFD6068284426
:104B100060600A9898B105E0246372657100000036
:104B2000000000004FEA18216268501C6060206895
:104B300081546268501C6060206800F80280BBF1FC
:104B4000000F09D0D4E9001288185246594600F0E7
:104B50008AFD606850446060002070E72DE9FF41E5
:104B600007460D4690461E460A9C01200021CDE9CD
:104B70000001EB1C0A46F9A1CDE902040A20FFF767
:104B80004EFF88B96168481C606020684654C5F3D0
:104B900007216268501C6060206881546268501C64
:104BA00060602068855403E0012004B0BDE8F08116
:104BB0000020FAE72DE9F84380460C4615461E46CC
:104BC0002F2108F1060000F03DFD0746002000906F
:104BD00017B90120BDE8F8837F1C6A46042108F15B
:104BE0000100FFF750FD252001F0C4FE2060206881
:104BF00008B90220EEE72521206800F0FAFC242203
:104C00003946206800F0DCFC243700982C383080CE
:104C10003188481C01F0AEFE2860286820B9206861
:104C200001F080FE0320D5E73288511C286800F08F
:104C3000E0FC32883946286800F0C2FC0020C9E751
:104C40002DE9FF5F07460D469046384600F004FD0B
:104C500086B2284600F000FD1FFA80FA4FF00009E6
:104C6000B01D01F087FE04461CB9012004B0BDE868
:104C7000F09FB11D204600F0BCFCB9A00168216086
:104C80008088A08032463946204600F0ECFC284659
:104C900000F0E2FC83460120002100915B462A4699
:104CA000CDE90208019121460A20FFF7B8FE10B9AC
:104CB0004FF0000901E04FF00109204601F032FEFB
:104CC0004846D3E72DE9FF5F8046174699460E9C7C
:104CD0000026B246B3460025B8F1000F03D10120EB
:104CE00004B0BDE8F09F0BE057F8250008B902209A
:104CF000F6E757F8250000F0AFFC0644681CC5B283
:104D00004D45F1DB09EB4900801C00EB060A0AF176
:104D100005012046FFF766FC206808B90320DFE79D
:104D200082216268501C606020688154D4E90002CE
:104D300081185046FFF790FC0FFA80FBBBF1000F83
:104D400004DA2046FFF77AFC0420C9E7606858447B
:104D500060604FEA18216268501C606020688154CE
:104D60006268501C6060206800F80280002524E022
:104D700057F8250000F070FC0646C6F3072162686C
:104D8000501C6060206881546268501C606020681C
:104D90008654D4E90023D01857F82510324600F085
:104DA00062FC6068304460600198C1B26268501C67
:104DB000606020688154681CC5B24D45D8DB002076
:104DC0008EE70146FF208A78A2B9CA78142A11D149
:104DD0000A7932B1012A05D0022A04D0802A06D1EC
:104DE00003E000BF00BF002003E0012001E002203B
:104DF00000BF00BF70472DE9F05F80460F46914627
:104E00001C460026B246B3460025B8F1000F02D179
:104E10000120BDE8F09F0BE057F8250008B90220FB
:104E2000F7E757F8250000F017FC0644681CC5B2E8
:104E30004D45F1DB022000EB490000EB060A0AF1C8
:104E400005012046FFF7CEFB206808B90320E0E704
:104E5000A2216268501C606020688154D4E900027D
:104E600081185046FFF7F8FB0FFA80FBBBF1000FEB
:104E700004DA2046FFF7E2FB0420CAE760685844E2
:104E800060604FEA18216268501C6060206881549D
:104E90006268501C6060206800F8028000251DE0F8
:104EA00057F8250000F0D8FB0646C6F307216268D4
:104EB000501C6060206881546268501C60602068EB
:104EC0008654D4E90023D01857F82510324600F054
:104ED000CAFB606830446060681CC5B24D45DFDBCA
:104EE000002096E7014601208A781AB9CA781E2A5E
:104EF00000D1002070472DE9FC5F81460D46144625
:104F00001E46DDE90C8B99F8000000F00F0A002026
:104F100001900AF008000090CAF341008BF80000ED
:104F200001AA042109F10100FFF7ADFB4844471C29
:104F30000198022802D30AF0010010B1FF20BDE859
:104F4000FC9F7878397840EA012020802088801CF6
:104F50000199884208D9FF20F1E70000246470001D
:104F600024637273702F0000AFF25441B81C00F03C
:104F700057FB08B10F20E2E79BF8000020B10128A1
:104F80003DD0022877D13BE0009808B1FF20D6E75A
:104F90002188481C01F0EEFC2860286808B9FF2031
:104FA000CDE72288511C286800F023FB2288B91C19
:104FB000286800F005FB0198801E2188401AA8F897
:104FC0000000B8F80010481C01F0D4FC30603068D4
:104FD00020B9286801F0A6FCFF20B0E7B8F800204F
:104FE000511C306800F005FBB8F80020B4F800C090
:104FF000BB1C0CEB0301306800F0E2FA4FE000BF8D
:105000002088801C0199884201D9FF2097E72088D9
:10501000C01C395C2088801C385C41EA00210E9855
:1050200001800E9808B9FF2089E72188481C01F00B
:10503000A1FC2860286808B9FF2080E72288511C5D
:10504000286800F0D6FA2288B91C286800F0B8FA5F
:105050000198001F2188401AA8F80000B8F8001035
:10506000481C01F087FC3060306828B9286801F0DE
:1050700059FCFF2063E710E0B8F80020511C3068AD
:1050800000F0B7FAB8F80020B4F800C03B1D0CEBF4
:105090000301306800F094FA01E0FF204FE700BF01
:1050A0002B21284600F0CEFA20B92321284600F013
:1050B000C9FA08B1FF2042E7002040E770B5054675
:1050C0000C4604212046FFF78DFA206808B901201C
:1050D00070BD40216268501C6060206881540221CC
:1050E0006268501C60602068815429126268501CFC
:1050F0006060206881546268501C6060206885543C
:105100000020E5E701464878022801D001207047D9
:10511000887820B9C8780A2801D10020F7E7012053
:10512000F5E770B505460C4604212046FFF75AFA0C
:10513000206808B9012070BD50216268501C606071
:105140002068815402216268501C6060206881548C
:1051500029126268501C6060206881546268501C8B
:105160006060206885540020E5E701464878022801
:1051700001D001207047887820B9C8780A2801D169
:105180000020F7E70120F5E770B505460C4604213D
:105190002046FFF727FA206808B9012070BD622178
:1051A0006268501C60602068815402216268501C53
:1051B00060602068815429126268501C6060206819
:1051C00081546268501C6060206885540020E5E7C7
:1051D00002465078022801D0012070479078B0EB49
:1051E000112F05D1D078CBB2984201D10020F4E73D
:1051F0000120F2E770B505460C4604212046FFF772
:10520000F1F9206808B9012070BD70216268501C56
:1052100060602068815402216268501C60602068D0
:10522000815429126268501C606020688154626851
:10523000501C6060206885540020E5E701464878EE
:10524000022801D001207047887820B9C8780A2840
:1052500001D10020F7E70120F5E710B5044602214F
:105260002046FFF7BFF9206808B9012010BDC02112
:105270006268501C60602068815400216268501C84
:105280006060206881540020F0E7000010B58021A4
:10529000874800F0AEF900208649088010BD854897
:1052A000008808B90120704782480088824909882F
:1052B000884203D100207F490880F4E77D480088B8
:1052C0007D4908800120EEE72DE9F04104460D46B6
:1052D000C826204600F0C0F987B23A4621467748F2
:1052E000FDF731FB0FE0FFF7DAFF48B929467048B8
:1052F00000F096F920B1FFF7C9FF0020BDE8F0816A
:105300000A20FDF723FD301EA6F10101CEB2EAD13D
:105310000120F3E730B589B004460D46FFF7B6FF2C
:105320002A4667A101A800F043FE69A101A8FFF782
:10533000CBFF20B92A4621466048FDF704FB09B09F
:1053400030BD70B50546002400BFFFF7A8FF80B947
:1053500060A1574800F064F9044654B13A21204650
:1053600000F070F9044614B1641C204670BD0020A2
:10537000FCE70520FDF7EAFC281EA5F101018DB22E
:10538000E3D100BFF2E708B501210820FBF700FCDC
:1053900010208DF803008002ADF8000003208DF886
:1053A000020069464D48FBF737F900224FF480416F
:1053B0004A48FBF7E2F9FA20FDF7C8FC0122910305
:1053C0004648FBF7DAF94FF4FA70FDF7BFFCFFF738
:1053D0005DFF43A14448FDF7CFFA03E04FF4FA70B4
:1053E000FDF7B4FC41A142A0FFF76EFF0028F5D104
:1053F00041A13D48FDF7C0FA03E04FF4FA70FDF714
:10540000A5FC3AA13FA0FFF75FFF0028F5D141A11D
:105410003548FDF7B1FA03E04FF4FA70FDF796FC5A
:1054200032A140A0FFF750FF0028F5D141A12E483E
:10543000FDF7A2FA03E04FF4FA70FDF787FC2BA109
:105440003FA0FFF741FF0028F5D146A12648FDF710
:1054500093FA03E04FF4FA70FDF778FC45A147A0FA
:10546000FFF732FF0028F5D14FA11F48FDF784FA5E
:1054700008BD10B540F225511048FBF7ADFDB0B1A5
:105480000C480088802802D300200A4908800B4875
:10549000001D0088C1B2074802880088401C054BE7
:1054A00018800348815420210448FBF78CFD10BD6F
:1054B000D4470020F0000020F20000200048004007
:1054C00041542B43495053454E443D25640D0A0039
:1054D0003E0000004950442C00000000000C014038
:1054E000312E2041540D0A00003801404F4B00007E
:1054F00041540D0A00000000322E2043574D4F4406
:10550000450D0A0041542B43574D4F44453D310D45
:105510000A000000332E2041542B43574448435087
:105520000D0A000041542B4357444843503D312C51
:10553000310D0A00342E2043574A41500D0A000015
:1055400041542B43574A41503D2248433034303177
:1055500032222C2230343031323034303132220D8C
:105560000A000000352E2043495053544152540D37
:105570000A000000434F4E4E4543540041542B4314
:10558000495053544152543D22544350222C22310D
:1055900038332E3233302E34302E3339222C3630FD
:1055A00030320D0A00000000362E204553503832AC
:1055B000363620496E6974204F4B0D0A00000000FA
:1055C00040EA01039B0703D009E008C9121F08C085
:1055D000042AFAD203E011F8013B00F8013B521E05
:1055E000F9D27047D2B201E000F8012B491EFBD27C
:1055F00070470022F6E710B513460A4604461946DE
:10560000FFF7F0FF204610BD421E12F8013F002BAD
:10561000FBD111F8013B02F8013B002BF9D1704797
:1056200030B505462A460B4612F8010B13F8014B1C
:1056300008B1A042F8D01CB1002802D06D1CF1E7DF
:10564000284630BDCAB2401E10F8011F8A4202D05F
:105650000029F9D100207047421C10F8011B0029D5
:10566000FBD1801A704710B5044600E0401C037857
:10567000002BFBD100E0401C521E04D311F8013B6B
:105680000370002BF7D100210170204610BD0000EF
:1056900070B50F4D00B92868002412E00A4602E0F8
:1056A0009E4203D0521C1378002BF9D1DAB2224368
:1056B00005D02BB124B1002100F8011B04E0044601
:1056C000401C0678002EE9D12860204670BD0000FD
:1056D000F400002070B5064600F0A6FC04680546FC
:1056E0000A220021304600F00BFB2C6070BD30B464
:1056F00080EA010202F0004530F0004221F0004053
:1057000013D090B1C30DD40DC2F31601C0F316002F
:10571000E41A41F4000140F400027D34914201D3C7
:10572000641C00E04900002C02DA30BC0020704705
:105730004FF400000023914201D3891A034340082B
:105740004FEA4101F7D151B1914202D14FF00041EE
:1057500005E002D24FF0010101E06FF0010103EB1F
:10576000C450284430BC00F003BB2DE9FE4F8046F6
:1057700081EA0300C00F0C46009021F0004123F0A5
:105780000045B8EB0200A94105D2404621469046AB
:105790001C460B46024623F00040104347D0270D1D
:1057A000C7F30A00C3F30A510290401A019040283F
:1057B0006BDAC3F3130040F4801B0098924620B1CB
:1057C0000023D2EB030A63EB0B0B01985946C0F19F
:1057D0004002504600F063FA06460D4650465946D0
:1057E000019A00F07BFA10EB08006141002487EA7F
:1057F000115284EAE7731A4340D0009A62B3019AC7
:10580000012A4FEA075215DC001B61EB02014FF041
:10581000004202EA0752CDE90042001C41F5801126
:1058200032462B4600F0EAFA03B0BDE8F08F40465E
:105830002146F9E7001B61EB0201001C41F58013D2
:1058400000185B412018A2F5001747EB030140EA5E
:10585000D570B6196D4111E06D084FEA360645EA7C
:10586000C0754FEA0752001B61EB0201001C41F5B5
:10587000801149084FEA30000019514132462B4649
:1058800003B0BDE8F04F00F0AABA00980122400032
:105890000023D0EB020263EBE073009821464FEA4D
:1058A000E074B8EB000061EB0401E9E783F000432A
:1058B0005BE781F0004158E72DE9FE4F81EA0304E0
:1058C00004F0004421F0004100944FF0000B23F05D
:1058D000004350EA01045ED052EA03045BD0C3F3F4
:1058E0000A54C1F30A552C44A4F2F3340194A0FBEA
:1058F0000254C1F3130141F48011C3F3130343F4C1
:10590000801301FB024400FB034E840A970A44EA19
:10591000815447EA8357A4FB076802958D0A05FB6B
:1059200007854FEA932C04FB0C542705029D4FEA90
:10593000065847EA1637B5EB08056EEB070C870EDD
:10594000920E47EA811742EA8312A7FB0201B6EBE7
:105950000B0164EB00042B0D43EA0C335E1844EB9F
:105960001C50DA465146E7FB0201C5F313044FEA27
:105970000B3343EA14534FEA0432019C43EA060313
:10598000A4F10C040294009CCDE900B400F036FAB6
:1059900003B0BDE8F08F00200146F9E72DE9F04D96
:1059A00081EA030404F0004B21F0004514464FF057
:1059B000000A23F0004150EA050220D054EA010217
:1059C0001DD0C5F30A570246C5F31303C1F31300F4
:1059D000C1F30A5640F4801543F48013A7EB060880
:1059E000101BD64608F2FD3873EB050002D308F110
:1059F000010801E092185B41B8F1000F03DA0020C2
:105A00000146BDE8F08D00204FF480110646844623
:105A10000EE0171B73EB050705D3121B63EB0503A1
:105A200006434CEA010C49084FEA300092185B41EA
:105A300050EA0107EDD152EA030012D082EA0400D5
:105A400083EA0501084305D0101BAB4106D20122B1
:105A5000002306E000224FF0004302E06FF0010255
:105A600053101AEB06004CEB085110EB0A0041EB07
:105A70000B01BDE8F04D00F0B2B9C10F80EAE07053
:105A80000844CA079623002100F07BB99623002220
:105A9000114600F076B90EB5C10F80EAE0700844F7
:105AA000CA07002140F233438DE80E000A460B4638
:105AB00000F0A4F903B000BD00F0004220F0004067
:105AC000C10DC0F3160040F400007F2901DA002068
:105AD0007047962903DCC1F19601C84001E0963970
